{
  "abi": [
    {
      "inputs": [],
      "stateMutability": "nonpayable",
      "type": "constructor"
    },
    {
      "inputs": [],
      "name": "BasicNft__TokenUriNotFound",
      "type": "error"
    },
    {
      "anonymous": false,
      "inputs": [
        {
          "indexed": true,
          "internalType": "address",
          "name": "owner",
          "type": "address"
        },
        {
          "indexed": true,
          "internalType": "address",
          "name": "approved",
          "type": "address"
        },
        {
          "indexed": true,
          "internalType": "uint256",
          "name": "tokenId",
          "type": "uint256"
        }
      ],
      "name": "Approval",
      "type": "event"
    },
    {
      "anonymous": false,
      "inputs": [
        {
          "indexed": true,
          "internalType": "address",
          "name": "owner",
          "type": "address"
        },
        {
          "indexed": true,
          "internalType": "address",
          "name": "operator",
          "type": "address"
        },
        {
          "indexed": false,
          "internalType": "bool",
          "name": "approved",
          "type": "bool"
        }
      ],
      "name": "ApprovalForAll",
      "type": "event"
    },
    {
      "anonymous": false,
      "inputs": [
        {
          "indexed": true,
          "internalType": "address",
          "name": "from",
          "type": "address"
        },
        {
          "indexed": true,
          "internalType": "address",
          "name": "to",
          "type": "address"
        },
        {
          "indexed": true,
          "internalType": "uint256",
          "name": "tokenId",
          "type": "uint256"
        }
      ],
      "name": "Transfer",
      "type": "event"
    },
    {
      "inputs": [
        {
          "internalType": "address",
          "name": "to",
          "type": "address"
        },
        {
          "internalType": "uint256",
          "name": "tokenId",
          "type": "uint256"
        }
      ],
      "name": "approve",
      "outputs": [],
      "stateMutability": "nonpayable",
      "type": "function"
    },
    {
      "inputs": [
        {
          "internalType": "address",
          "name": "owner",
          "type": "address"
        }
      ],
      "name": "balanceOf",
      "outputs": [
        {
          "internalType": "uint256",
          "name": "",
          "type": "uint256"
        }
      ],
      "stateMutability": "view",
      "type": "function"
    },
    {
      "inputs": [
        {
          "internalType": "uint256",
          "name": "_id",
          "type": "uint256"
        }
      ],
      "name": "getAddressFromId",
      "outputs": [
        {
          "internalType": "address",
          "name": "",
          "type": "address"
        }
      ],
      "stateMutability": "view",
      "type": "function"
    },
    {
      "inputs": [
        {
          "internalType": "uint256",
          "name": "tokenId",
          "type": "uint256"
        }
      ],
      "name": "getApproved",
      "outputs": [
        {
          "internalType": "address",
          "name": "",
          "type": "address"
        }
      ],
      "stateMutability": "view",
      "type": "function"
    },
    {
      "inputs": [
        {
          "internalType": "address",
          "name": "owner",
          "type": "address"
        },
        {
          "internalType": "address",
          "name": "operator",
          "type": "address"
        }
      ],
      "name": "isApprovedForAll",
      "outputs": [
        {
          "internalType": "bool",
          "name": "",
          "type": "bool"
        }
      ],
      "stateMutability": "view",
      "type": "function"
    },
    {
      "inputs": [
        {
          "internalType": "address",
          "name": "_to",
          "type": "address"
        },
        {
          "internalType": "uint256",
          "name": "_tokenCounter",
          "type": "uint256"
        },
        {
          "internalType": "string",
          "name": "_uri",
          "type": "string"
        }
      ],
      "name": "mint",
      "outputs": [],
      "stateMutability": "nonpayable",
      "type": "function"
    },
    {
      "inputs": [],
      "name": "name",
      "outputs": [
        {
          "internalType": "string",
          "name": "",
          "type": "string"
        }
      ],
      "stateMutability": "view",
      "type": "function"
    },
    {
      "inputs": [
        {
          "internalType": "uint256",
          "name": "tokenId",
          "type": "uint256"
        }
      ],
      "name": "ownerOf",
      "outputs": [
        {
          "internalType": "address",
          "name": "",
          "type": "address"
        }
      ],
      "stateMutability": "view",
      "type": "function"
    },
    {
      "inputs": [
        {
          "internalType": "address",
          "name": "from",
          "type": "address"
        },
        {
          "internalType": "address",
          "name": "to",
          "type": "address"
        },
        {
          "internalType": "uint256",
          "name": "tokenId",
          "type": "uint256"
        }
      ],
      "name": "safeTransferFrom",
      "outputs": [],
      "stateMutability": "nonpayable",
      "type": "function"
    },
    {
      "inputs": [
        {
          "internalType": "address",
          "name": "from",
          "type": "address"
        },
        {
          "internalType": "address",
          "name": "to",
          "type": "address"
        },
        {
          "internalType": "uint256",
          "name": "tokenId",
          "type": "uint256"
        },
        {
          "internalType": "bytes",
          "name": "data",
          "type": "bytes"
        }
      ],
      "name": "safeTransferFrom",
      "outputs": [],
      "stateMutability": "nonpayable",
      "type": "function"
    },
    {
      "inputs": [
        {
          "internalType": "address",
          "name": "operator",
          "type": "address"
        },
        {
          "internalType": "bool",
          "name": "approved",
          "type": "bool"
        }
      ],
      "name": "setApprovalForAll",
      "outputs": [],
      "stateMutability": "nonpayable",
      "type": "function"
    },
    {
      "inputs": [
        {
          "internalType": "bytes4",
          "name": "interfaceId",
          "type": "bytes4"
        }
      ],
      "name": "supportsInterface",
      "outputs": [
        {
          "internalType": "bool",
          "name": "",
          "type": "bool"
        }
      ],
      "stateMutability": "view",
      "type": "function"
    },
    {
      "inputs": [],
      "name": "symbol",
      "outputs": [
        {
          "internalType": "string",
          "name": "",
          "type": "string"
        }
      ],
      "stateMutability": "view",
      "type": "function"
    },
    {
      "inputs": [
        {
          "internalType": "uint256",
          "name": "_tokenId",
          "type": "uint256"
        }
      ],
      "name": "tokenURI",
      "outputs": [
        {
          "internalType": "string",
          "name": "",
          "type": "string"
        }
      ],
      "stateMutability": "view",
      "type": "function"
    },
    {
      "inputs": [
        {
          "internalType": "address",
          "name": "from",
          "type": "address"
        },
        {
          "internalType": "address",
          "name": "to",
          "type": "address"
        },
        {
          "internalType": "uint256",
          "name": "tokenId",
          "type": "uint256"
        }
      ],
      "name": "transferFrom",
      "outputs": [],
      "stateMutability": "nonpayable",
      "type": "function"
    }
  ],
  "bytecode": {
    "object": "0x60806040523480156200001157600080fd5b506040518060400160405280600b81526020016a14dd185c98dbdb9b9958dd60aa1b8152506040518060400160405280600381526020016253544360e81b815250816000908162000063919062000120565b50600162000072828262000120565b505050620001ec565b634e487b7160e01b600052604160045260246000fd5b600181811c90821680620000a657607f821691505b602082108103620000c757634e487b7160e01b600052602260045260246000fd5b50919050565b601f8211156200011b57600081815260208120601f850160051c81016020861015620000f65750805b601f850160051c820191505b81811015620001175782815560010162000102565b5050505b505050565b81516001600160401b038111156200013c576200013c6200007b565b62000154816200014d845462000091565b84620000cd565b602080601f8311600181146200018c5760008415620001735750858301515b600019600386901b1c1916600185901b17855562000117565b600085815260208120601f198616915b82811015620001bd578886015182559484019460019091019084016200019c565b5085821015620001dc5787850151600019600388901b60f8161c191681555b5050505050600190811b01905550565b6113a480620001fc6000396000f3fe608060405234801561001057600080fd5b50600436106100f55760003560e01c806370a0823111610097578063b88d4fde11610066578063b88d4fde14610215578063c87b56dd14610228578063d3fc98641461023b578063e985e9c51461024e57600080fd5b806370a08231146101b057806372166b6b146101d157806395d89b41146101fa578063a22cb4651461020257600080fd5b8063095ea7b3116100d3578063095ea7b31461016257806323b872dd1461017757806342842e0e1461018a5780636352211e1461019d57600080fd5b806301ffc9a7146100fa57806306fdde0314610122578063081812fc14610137575b600080fd5b61010d610108366004610dd3565b61028a565b60405190151581526020015b60405180910390f35b61012a6102dc565b6040516101199190610e3d565b61014a610145366004610e50565b61036e565b6040516001600160a01b039091168152602001610119565b610175610170366004610e85565b610395565b005b610175610185366004610eaf565b6104af565b610175610198366004610eaf565b6104e0565b61014a6101ab366004610e50565b6104fb565b6101c36101be366004610eeb565b61055b565b604051908152602001610119565b61014a6101df366004610e50565b6000908152600660205260409020546001600160a01b031690565b61012a6105e1565b610175610210366004610f06565b6105f0565b610175610223366004610fce565b6105ff565b61012a610236366004610e50565b610637565b61017561024936600461104a565b61070d565b61010d61025c3660046110b5565b6001600160a01b03918216600090815260056020908152604080832093909416825291909152205460ff1690565b60006001600160e01b031982166380ac58cd60e01b14806102bb57506001600160e01b03198216635b5e139f60e01b145b806102d657506301ffc9a760e01b6001600160e01b03198316145b92915050565b6060600080546102eb906110e8565b80601f0160208091040260200160405190810160405280929190818152602001828054610317906110e8565b80156103645780601f1061033957610100808354040283529160200191610364565b820191906000526020600020905b81548152906001019060200180831161034757829003601f168201915b5050505050905090565b600061037982610730565b506000908152600460205260409020546001600160a01b031690565b60006103a0826104fb565b9050806001600160a01b0316836001600160a01b0316036104125760405162461bcd60e51b815260206004820152602160248201527f4552433732313a20617070726f76616c20746f2063757272656e74206f776e656044820152603960f91b60648201526084015b60405180910390fd5b336001600160a01b038216148061042e575061042e813361025c565b6104a05760405162461bcd60e51b815260206004820152603d60248201527f4552433732313a20617070726f76652063616c6c6572206973206e6f7420746f60448201527f6b656e206f776e6572206f7220617070726f76656420666f7220616c6c0000006064820152608401610409565b6104aa8383610792565b505050565b6104b93382610800565b6104d55760405162461bcd60e51b815260040161040990611122565b6104aa83838361087f565b6104aa838383604051806020016040528060008152506105ff565b6000818152600260205260408120546001600160a01b0316806102d65760405162461bcd60e51b8152602060048201526018602482015277115490cdcc8c4e881a5b9d985b1a59081d1bdad95b88125160421b6044820152606401610409565b60006001600160a01b0382166105c55760405162461bcd60e51b815260206004820152602960248201527f4552433732313a2061646472657373207a65726f206973206e6f7420612076616044820152683634b21037bbb732b960b91b6064820152608401610409565b506001600160a01b031660009081526003602052604090205490565b6060600180546102eb906110e8565b6105fb3383836109e3565b5050565b6106093383610800565b6106255760405162461bcd60e51b815260040161040990611122565b61063184848484610ab1565b50505050565b6000818152600260205260409020546060906001600160a01b031661066f57604051637598996f60e01b815260040160405180910390fd5b60008281526007602052604090208054610688906110e8565b80601f01602080910402602001604051908101604052809291908181526020018280546106b4906110e8565b80156107015780601f106106d657610100808354040283529160200191610701565b820191906000526020600020905b8154815290600101906020018083116106e457829003601f168201915b50505050509050919050565b600082815260076020526040902061072582826111bd565b506104aa8383610ae4565b6000818152600260205260409020546001600160a01b031661078f5760405162461bcd60e51b8152602060048201526018602482015277115490cdcc8c4e881a5b9d985b1a59081d1bdad95b88125160421b6044820152606401610409565b50565b600081815260046020526040902080546001600160a01b0319166001600160a01b03841690811790915581906107c7826104fb565b6001600160a01b03167f8c5be1e5ebec7d5bd14f71427d1e84f3dd0314c0f7b2291e5b200ac8c7c3b92560405160405180910390a45050565b60008061080c836104fb565b9050806001600160a01b0316846001600160a01b0316148061085357506001600160a01b0380821660009081526005602090815260408083209388168352929052205460ff165b806108775750836001600160a01b031661086c8461036e565b6001600160a01b0316145b949350505050565b826001600160a01b0316610892826104fb565b6001600160a01b0316146108b85760405162461bcd60e51b81526004016104099061127d565b6001600160a01b03821661091a5760405162461bcd60e51b8152602060048201526024808201527f4552433732313a207472616e7366657220746f20746865207a65726f206164646044820152637265737360e01b6064820152608401610409565b826001600160a01b031661092d826104fb565b6001600160a01b0316146109535760405162461bcd60e51b81526004016104099061127d565b600081815260046020908152604080832080546001600160a01b03199081169091556001600160a01b0387811680865260038552838620805460001901905590871680865283862080546001019055868652600290945282852080549092168417909155905184937fddf252ad1be2c89b69c2b068fc378daa952ba7f163c4a11628f55a4df523b3ef91a4505050565b816001600160a01b0316836001600160a01b031603610a445760405162461bcd60e51b815260206004820152601960248201527f4552433732313a20617070726f766520746f2063616c6c6572000000000000006044820152606401610409565b6001600160a01b03838116600081815260056020908152604080832094871680845294825291829020805460ff191686151590811790915591519182527f17307eab39ab6107e8899845ad3d59bd9653f200f220920489ca2b5937696c31910160405180910390a3505050565b610abc84848461087f565b610ac884848484610afe565b6106315760405162461bcd60e51b8152600401610409906112c2565b6105fb828260405180602001604052806000815250610bff565b60006001600160a01b0384163b15610bf457604051630a85bd0160e11b81526001600160a01b0385169063150b7a0290610b42903390899088908890600401611314565b6020604051808303816000875af1925050508015610b7d575060408051601f3d908101601f19168201909252610b7a91810190611351565b60015b610bda573d808015610bab576040519150601f19603f3d011682016040523d82523d6000602084013e610bb0565b606091505b508051600003610bd25760405162461bcd60e51b8152600401610409906112c2565b805181602001fd5b6001600160e01b031916630a85bd0160e11b149050610877565b506001949350505050565b610c098383610c32565b610c166000848484610afe565b6104aa5760405162461bcd60e51b8152600401610409906112c2565b6001600160a01b038216610c885760405162461bcd60e51b815260206004820181905260248201527f4552433732313a206d696e7420746f20746865207a65726f20616464726573736044820152606401610409565b6000818152600260205260409020546001600160a01b031615610ced5760405162461bcd60e51b815260206004820152601c60248201527f4552433732313a20746f6b656e20616c7265616479206d696e746564000000006044820152606401610409565b6000818152600260205260409020546001600160a01b031615610d525760405162461bcd60e51b815260206004820152601c60248201527f4552433732313a20746f6b656e20616c7265616479206d696e746564000000006044820152606401610409565b6001600160a01b038216600081815260036020908152604080832080546001019055848352600290915280822080546001600160a01b0319168417905551839291907fddf252ad1be2c89b69c2b068fc378daa952ba7f163c4a11628f55a4df523b3ef908290a45050565b6001600160e01b03198116811461078f57600080fd5b600060208284031215610de557600080fd5b8135610df081610dbd565b9392505050565b6000815180845260005b81811015610e1d57602081850181015186830182015201610e01565b506000602082860101526020601f19601f83011685010191505092915050565b602081526000610df06020830184610df7565b600060208284031215610e6257600080fd5b5035919050565b80356001600160a01b0381168114610e8057600080fd5b919050565b60008060408385031215610e9857600080fd5b610ea183610e69565b946020939093013593505050565b600080600060608486031215610ec457600080fd5b610ecd84610e69565b9250610edb60208501610e69565b9150604084013590509250925092565b600060208284031215610efd57600080fd5b610df082610e69565b60008060408385031215610f1957600080fd5b610f2283610e69565b915060208301358015158114610f3757600080fd5b809150509250929050565b634e487b7160e01b600052604160045260246000fd5b600067ffffffffffffffff80841115610f7357610f73610f42565b604051601f8501601f19908116603f01168101908282118183101715610f9b57610f9b610f42565b81604052809350858152868686011115610fb457600080fd5b858560208301376000602087830101525050509392505050565b60008060008060808587031215610fe457600080fd5b610fed85610e69565b9350610ffb60208601610e69565b925060408501359150606085013567ffffffffffffffff81111561101e57600080fd5b8501601f8101871361102f57600080fd5b61103e87823560208401610f58565b91505092959194509250565b60008060006060848603121561105f57600080fd5b61106884610e69565b925060208401359150604084013567ffffffffffffffff81111561108b57600080fd5b8401601f8101861361109c57600080fd5b6110ab86823560208401610f58565b9150509250925092565b600080604083850312156110c857600080fd5b6110d183610e69565b91506110df60208401610e69565b90509250929050565b600181811c908216806110fc57607f821691505b60208210810361111c57634e487b7160e01b600052602260045260246000fd5b50919050565b6020808252602d908201527f4552433732313a2063616c6c6572206973206e6f7420746f6b656e206f776e6560408201526c1c881bdc88185c1c1c9bdd9959609a1b606082015260800190565b601f8211156104aa57600081815260208120601f850160051c810160208610156111965750805b601f850160051c820191505b818110156111b5578281556001016111a2565b505050505050565b815167ffffffffffffffff8111156111d7576111d7610f42565b6111eb816111e584546110e8565b8461116f565b602080601f83116001811461122057600084156112085750858301515b600019600386901b1c1916600185901b1785556111b5565b600085815260208120601f198616915b8281101561124f57888601518255948401946001909101908401611230565b508582101561126d5787850151600019600388901b60f8161c191681555b5050505050600190811b01905550565b60208082526025908201527f4552433732313a207472616e736665722066726f6d20696e636f72726563742060408201526437bbb732b960d91b606082015260800190565b60208082526032908201527f4552433732313a207472616e7366657220746f206e6f6e20455243373231526560408201527131b2b4bb32b91034b6b83632b6b2b73a32b960711b606082015260800190565b6001600160a01b038581168252841660208201526040810183905260806060820181905260009061134790830184610df7565b9695505050505050565b60006020828403121561136357600080fd5b8151610df081610dbd56fea2646970667358221220bbde3077d5ca42b4fcb7fb75be4894f69b7a3ed3d9b117e52cb95a083070331864736f6c63430008130033",
    "linkReferences": {}
  },
  "methodIdentifiers": {
    "approve(address,uint256)": "095ea7b3",
    "balanceOf(address)": "70a08231",
    "getAddressFromId(uint256)": "72166b6b",
    "getApproved(uint256)": "081812fc",
    "isApprovedForAll(address,address)": "e985e9c5",
    "mint(address,uint256,string)": "d3fc9864",
    "name()": "06fdde03",
    "ownerOf(uint256)": "6352211e",
    "safeTransferFrom(address,address,uint256)": "42842e0e",
    "safeTransferFrom(address,address,uint256,bytes)": "b88d4fde",
    "setApprovalForAll(address,bool)": "a22cb465",
    "supportsInterface(bytes4)": "01ffc9a7",
    "symbol()": "95d89b41",
    "tokenURI(uint256)": "c87b56dd",
    "transferFrom(address,address,uint256)": "23b872dd"
  },
  "id": 32
}