{
  "abi": [
    {
      "inputs": [
        {
          "internalType": "uint256",
          "name": "requestId",
          "type": "uint256"
        }
      ],
      "name": "NFTPurchaseManager__AlreadyMintedNft",
      "type": "error"
    },
    {
      "inputs": [],
      "name": "NFTPurchaseManager__NotAllowedToPerformThisAction",
      "type": "error"
    },
    {
      "inputs": [
        {
          "internalType": "uint256",
          "name": "amountSent",
          "type": "uint256"
        },
        {
          "internalType": "uint256",
          "name": "correctAmount",
          "type": "uint256"
        }
      ],
      "name": "NFTPurchaseManager__UncorrectAmountSent",
      "type": "error"
    },
    {
      "anonymous": false,
      "inputs": [
        {
          "indexed": false,
          "internalType": "uint256",
          "name": "creatorId",
          "type": "uint256"
        },
        {
          "indexed": false,
          "internalType": "address",
          "name": "creatorAddress",
          "type": "address"
        },
        {
          "indexed": false,
          "internalType": "uint256",
          "name": "creatorPrice",
          "type": "uint256"
        }
      ],
      "name": "NewCreator",
      "type": "event"
    },
    {
      "anonymous": false,
      "inputs": [
        {
          "indexed": false,
          "internalType": "uint256",
          "name": "requestId",
          "type": "uint256"
        },
        {
          "indexed": false,
          "internalType": "address",
          "name": "fanAddress",
          "type": "address"
        },
        {
          "indexed": false,
          "internalType": "uint256",
          "name": "creatorId",
          "type": "uint256"
        },
        {
          "indexed": false,
          "internalType": "string",
          "name": "message",
          "type": "string"
        },
        {
          "indexed": false,
          "internalType": "uint256",
          "name": "amountPaid",
          "type": "uint256"
        }
      ],
      "name": "PurchaseRequestCreated",
      "type": "event"
    },
    {
      "anonymous": false,
      "inputs": [
        {
          "indexed": false,
          "internalType": "address",
          "name": "fanAddress",
          "type": "address"
        }
      ],
      "name": "RefundedFan",
      "type": "event"
    },
    {
      "anonymous": false,
      "inputs": [
        {
          "indexed": false,
          "internalType": "uint256",
          "name": "requestId",
          "type": "uint256"
        },
        {
          "indexed": false,
          "internalType": "string",
          "name": "URI",
          "type": "string"
        },
        {
          "indexed": false,
          "internalType": "address",
          "name": "fan",
          "type": "address"
        }
      ],
      "name": "RequestFulfilled",
      "type": "event"
    },
    {
      "inputs": [
        {
          "internalType": "string",
          "name": "_name",
          "type": "string"
        },
        {
          "internalType": "uint256",
          "name": "_priceInETH",
          "type": "uint256"
        }
      ],
      "name": "addContentCreator",
      "outputs": [
        {
          "internalType": "uint256",
          "name": "",
          "type": "uint256"
        }
      ],
      "stateMutability": "nonpayable",
      "type": "function"
    },
    {
      "inputs": [
        {
          "internalType": "uint256",
          "name": "_requestId",
          "type": "uint256"
        },
        {
          "internalType": "string",
          "name": "_URI",
          "type": "string"
        }
      ],
      "name": "fulfillRequestAndMint",
      "outputs": [],
      "stateMutability": "nonpayable",
      "type": "function"
    },
    {
      "inputs": [
        {
          "internalType": "uint256",
          "name": "_creatorId",
          "type": "uint256"
        }
      ],
      "name": "getContentCreatorInfo",
      "outputs": [
        {
          "internalType": "string",
          "name": "",
          "type": "string"
        },
        {
          "internalType": "address",
          "name": "",
          "type": "address"
        },
        {
          "internalType": "uint256",
          "name": "",
          "type": "uint256"
        }
      ],
      "stateMutability": "view",
      "type": "function"
    },
    {
      "inputs": [
        {
          "internalType": "uint256",
          "name": "_requestId",
          "type": "uint256"
        }
      ],
      "name": "getRequestDetails",
      "outputs": [
        {
          "internalType": "address",
          "name": "",
          "type": "address"
        },
        {
          "internalType": "uint256",
          "name": "",
          "type": "uint256"
        },
        {
          "internalType": "string",
          "name": "",
          "type": "string"
        },
        {
          "internalType": "uint256",
          "name": "",
          "type": "uint256"
        },
        {
          "internalType": "bool",
          "name": "",
          "type": "bool"
        }
      ],
      "stateMutability": "view",
      "type": "function"
    },
    {
      "inputs": [
        {
          "internalType": "uint256",
          "name": "_creatorId",
          "type": "uint256"
        }
      ],
      "name": "getRequestsForCreator",
      "outputs": [
        {
          "internalType": "uint256[]",
          "name": "",
          "type": "uint256[]"
        }
      ],
      "stateMutability": "view",
      "type": "function"
    },
    {
      "inputs": [
        {
          "internalType": "uint256",
          "name": "_creatorId",
          "type": "uint256"
        },
        {
          "internalType": "string",
          "name": "_message",
          "type": "string"
        }
      ],
      "name": "purchaseNFT",
      "outputs": [
        {
          "internalType": "uint256",
          "name": "",
          "type": "uint256"
        }
      ],
      "stateMutability": "payable",
      "type": "function"
    },
    {
      "inputs": [
        {
          "internalType": "uint256",
          "name": "requestId",
          "type": "uint256"
        }
      ],
      "name": "refund",
      "outputs": [],
      "stateMutability": "nonpayable",
      "type": "function"
    }
  ],
  "bytecode": {
    "object": "0x6080604052600060015534801561001557600080fd5b5060016000556124918061002a6000396000f3fe608060405260043610620000795760003560e01c806395eea453116200005457806395eea45314620000f4578063b2a92810146200012a578063b7efa215146200014f578063f34d4c63146200018357600080fd5b8063065a4353146200007e578063278ecde114620000a55780632f6e02b614620000ca575b600080fd5b3480156200008b57600080fd5b50620000a36200009d36600462000ac4565b620001bb565b005b348015620000b257600080fd5b50620000a3620000c436600462000b0f565b620003ea565b620000e1620000db36600462000ac4565b62000532565b6040519081526020015b60405180910390f35b3480156200010157600080fd5b50620001196200011336600462000b0f565b620006ae565b604051620000eb9392919062000b71565b3480156200013757600080fd5b50620000e16200014936600462000ba1565b6200077c565b3480156200015c57600080fd5b50620001746200016e36600462000b0f565b62000862565b604051620000eb919062000bea565b3480156200019057600080fd5b50620001a8620001a236600462000b0f565b620008c6565b604051620000eb95949392919062000c30565b600082815260036020908152604080832060019081015484526004909252909120015482906001600160a01b03163314620002095760405163029668d360e11b815260040160405180910390fd5b600083815260036020526040902060040154839060ff16156200024757604051632b08f44160e01b8152600481018290526024015b60405180910390fd5b62000251620009b0565b6000848152600360208181526040808420600181015485526004835281852060020154898652939092529054905191926001600160a01b0390911691620002989062000a0b565b604051809103906000f080158015620002b5573d6000803e3d6000fd5b506040516334ff261960e21b81529091506001600160a01b0382169063d3fc986490620002eb9085908b908b9060040162000c72565b600060405180830381600087803b1580156200030657600080fd5b505af11580156200031b573d6000803e3d6000fd5b505060405160009250829150339086908381818185875af1925050503d806000811462000365576040519150601f19603f3d011682016040523d82523d6000602084013e6200036a565b606091505b5091509150816200037a57600080fd5b60008981526003602052604090819020600401805460ff19166001179055517fa67a872e9deaae61261d948e7ed862d69f31ae38be00020be7c088d67724723b90620003cc908b908b90889062000ca4565b60405180910390a15050505050620003e46001600055565b50505050565b600081815260036020526040902060040154819060ff16156200042457604051632b08f44160e01b8152600481018290526024016200023e565b60008281526003602052604090205482906001600160a01b031633146200045e5760405163029668d360e11b815260040160405180910390fd5b62000468620009b0565b600083815260036020908152604080832080546001909101548452600490925280832060020154905183926001600160a01b031691908381818185875af1925050503d8060008114620004d8576040519150601f19603f3d011682016040523d82523d6000602084013e620004dd565b606091505b509150915081620004ed57600080fd5b6040513381527f9ef0f8dc918c885543b0e2eec61eb96f087677207a1aaf28e29f18635980570c9060200160405180910390a150506200052d6001600055565b505050565b6000828152600460205260408120600201543481146200056f576040516364a5396760e01b8152346004820152602481018290526044016200023e565b6040805160a0810182523381526020808201878152828401878152346060850152600060808501819052600280548252600390945294909420835181546001600160a01b0319166001600160a01b0390911617815590516001820155925191929190820190620005e0908262000d65565b5060608201516003828101919091556080909201516004909101805460ff19169115159190911790556002805460008181526020938452604080822060019081015483526005865281832080549182018155835294909120909301555490517f8a3ff9b2d6ff0522c8bfaa40655328fae7a97829f0c752ff5c134a3fdd599d84916200067491339088908890349062000e32565b60405180910390a1600280549060006200068e8362000e89565b91905055506001600254620006a4919062000ea5565b9150505b92915050565b600081815260046020526040812060018101546002820154825460609493849390926001600160a01b03909116918390620006e99062000cd7565b80601f0160208091040260200160405190810160405280929190818152602001828054620007179062000cd7565b8015620007685780601f106200073c5761010080835404028352916020019162000768565b820191906000526020600020905b8154815290600101906020018083116200074a57829003601f168201915b505050505092509250925092509193909250565b60408051606081018252838152336020808301919091528183018490526001546000908152600490915291822081518190620007b9908262000d65565b50602082810151600183810180546001600160a01b0319166001600160a01b03909316929092179091556040938401516002909301929092559054825190815233918101919091529081018390527fb5c8456f65ce890747d669970ee6f257f63a096562fc55795876c4496f45ee889060600160405180910390a160018054906000620008468362000e89565b9190505550600180546200085b919062000ea5565b9392505050565b600081815260056020908152604091829020805483518184028101840190945280845260609392830182828015620008ba57602002820191906000526020600020905b815481526020019060010190808311620008a5575b50505050509050919050565b6000818152600360208190526040822080546001820154928201546004830154600290930180548695606095879586956001600160a01b03909116949293909160ff16908390620009179062000cd7565b80601f0160208091040260200160405190810160405280929190818152602001828054620009459062000cd7565b8015620009965780601f106200096a5761010080835404028352916020019162000996565b820191906000526020600020905b8154815290600101906020018083116200097857829003601f168201915b505050505092509450945094509450945091939590929450565b60026000540362000a045760405162461bcd60e51b815260206004820152601f60248201527f5265656e7472616e637947756172643a207265656e7472616e742063616c6c0060448201526064016200023e565b6002600055565b6115a08062000ebc83390190565b634e487b7160e01b600052604160045260246000fd5b600082601f83011262000a4157600080fd5b813567ffffffffffffffff8082111562000a5f5762000a5f62000a19565b604051601f8301601f19908116603f0116810190828211818310171562000a8a5762000a8a62000a19565b8160405283815286602085880101111562000aa457600080fd5b836020870160208301376000602085830101528094505050505092915050565b6000806040838503121562000ad857600080fd5b82359150602083013567ffffffffffffffff81111562000af757600080fd5b62000b058582860162000a2f565b9150509250929050565b60006020828403121562000b2257600080fd5b5035919050565b6000815180845260005b8181101562000b515760208185018101518683018201520162000b33565b506000602082860101526020601f19601f83011685010191505092915050565b60608152600062000b86606083018662000b29565b6001600160a01b039490941660208301525060400152919050565b6000806040838503121562000bb557600080fd5b823567ffffffffffffffff81111562000bcd57600080fd5b62000bdb8582860162000a2f565b95602094909401359450505050565b6020808252825182820181905260009190848201906040850190845b8181101562000c245783518352928401929184019160010162000c06565b50909695505050505050565b60018060a01b038616815284602082015260a06040820152600062000c5960a083018662000b29565b6060830194909452509015156080909101529392505050565b60018060a01b038416815282602082015260606040820152600062000c9b606083018462000b29565b95945050505050565b83815260606020820152600062000cbf606083018562000b29565b905060018060a01b0383166040830152949350505050565b600181811c9082168062000cec57607f821691505b60208210810362000d0d57634e487b7160e01b600052602260045260246000fd5b50919050565b601f8211156200052d57600081815260208120601f850160051c8101602086101562000d3c5750805b601f850160051c820191505b8181101562000d5d5782815560010162000d48565b505050505050565b815167ffffffffffffffff81111562000d825762000d8262000a19565b62000d9a8162000d93845462000cd7565b8462000d13565b602080601f83116001811462000dd2576000841562000db95750858301515b600019600386901b1c1916600185901b17855562000d5d565b600085815260208120601f198616915b8281101562000e035788860151825594840194600190910190840162000de2565b508582101562000e225787850151600019600388901b60f8161c191681555b5050505050600190811b01905550565b85815260018060a01b038516602082015283604082015260a06060820152600062000e6160a083018562000b29565b90508260808301529695505050505050565b634e487b7160e01b600052601160045260246000fd5b60006001820162000e9e5762000e9e62000e73565b5060010190565b81810381811115620006a857620006a862000e7356fe60806040523480156200001157600080fd5b506040518060400160405280600b81526020016a14dd185c98dbdb9b9958dd60aa1b8152506040518060400160405280600381526020016253544360e81b815250816000908162000063919062000120565b50600162000072828262000120565b505050620001ec565b634e487b7160e01b600052604160045260246000fd5b600181811c90821680620000a657607f821691505b602082108103620000c757634e487b7160e01b600052602260045260246000fd5b50919050565b601f8211156200011b57600081815260208120601f850160051c81016020861015620000f65750805b601f850160051c820191505b81811015620001175782815560010162000102565b5050505b505050565b81516001600160401b038111156200013c576200013c6200007b565b62000154816200014d845462000091565b84620000cd565b602080601f8311600181146200018c5760008415620001735750858301515b600019600386901b1c1916600185901b17855562000117565b600085815260208120601f198616915b82811015620001bd578886015182559484019460019091019084016200019c565b5085821015620001dc5787850151600019600388901b60f8161c191681555b5050505050600190811b01905550565b6113a480620001fc6000396000f3fe608060405234801561001057600080fd5b50600436106100f55760003560e01c806370a0823111610097578063b88d4fde11610066578063b88d4fde14610215578063c87b56dd14610228578063d3fc98641461023b578063e985e9c51461024e57600080fd5b806370a08231146101b057806372166b6b146101d157806395d89b41146101fa578063a22cb4651461020257600080fd5b8063095ea7b3116100d3578063095ea7b31461016257806323b872dd1461017757806342842e0e1461018a5780636352211e1461019d57600080fd5b806301ffc9a7146100fa57806306fdde0314610122578063081812fc14610137575b600080fd5b61010d610108366004610dd3565b61028a565b60405190151581526020015b60405180910390f35b61012a6102dc565b6040516101199190610e3d565b61014a610145366004610e50565b61036e565b6040516001600160a01b039091168152602001610119565b610175610170366004610e85565b610395565b005b610175610185366004610eaf565b6104af565b610175610198366004610eaf565b6104e0565b61014a6101ab366004610e50565b6104fb565b6101c36101be366004610eeb565b61055b565b604051908152602001610119565b61014a6101df366004610e50565b6000908152600660205260409020546001600160a01b031690565b61012a6105e1565b610175610210366004610f06565b6105f0565b610175610223366004610fce565b6105ff565b61012a610236366004610e50565b610637565b61017561024936600461104a565b61070d565b61010d61025c3660046110b5565b6001600160a01b03918216600090815260056020908152604080832093909416825291909152205460ff1690565b60006001600160e01b031982166380ac58cd60e01b14806102bb57506001600160e01b03198216635b5e139f60e01b145b806102d657506301ffc9a760e01b6001600160e01b03198316145b92915050565b6060600080546102eb906110e8565b80601f0160208091040260200160405190810160405280929190818152602001828054610317906110e8565b80156103645780601f1061033957610100808354040283529160200191610364565b820191906000526020600020905b81548152906001019060200180831161034757829003601f168201915b5050505050905090565b600061037982610730565b506000908152600460205260409020546001600160a01b031690565b60006103a0826104fb565b9050806001600160a01b0316836001600160a01b0316036104125760405162461bcd60e51b815260206004820152602160248201527f4552433732313a20617070726f76616c20746f2063757272656e74206f776e656044820152603960f91b60648201526084015b60405180910390fd5b336001600160a01b038216148061042e575061042e813361025c565b6104a05760405162461bcd60e51b815260206004820152603d60248201527f4552433732313a20617070726f76652063616c6c6572206973206e6f7420746f60448201527f6b656e206f776e6572206f7220617070726f76656420666f7220616c6c0000006064820152608401610409565b6104aa8383610792565b505050565b6104b93382610800565b6104d55760405162461bcd60e51b815260040161040990611122565b6104aa83838361087f565b6104aa838383604051806020016040528060008152506105ff565b6000818152600260205260408120546001600160a01b0316806102d65760405162461bcd60e51b8152602060048201526018602482015277115490cdcc8c4e881a5b9d985b1a59081d1bdad95b88125160421b6044820152606401610409565b60006001600160a01b0382166105c55760405162461bcd60e51b815260206004820152602960248201527f4552433732313a2061646472657373207a65726f206973206e6f7420612076616044820152683634b21037bbb732b960b91b6064820152608401610409565b506001600160a01b031660009081526003602052604090205490565b6060600180546102eb906110e8565b6105fb3383836109e3565b5050565b6106093383610800565b6106255760405162461bcd60e51b815260040161040990611122565b61063184848484610ab1565b50505050565b6000818152600260205260409020546060906001600160a01b031661066f57604051637598996f60e01b815260040160405180910390fd5b60008281526007602052604090208054610688906110e8565b80601f01602080910402602001604051908101604052809291908181526020018280546106b4906110e8565b80156107015780601f106106d657610100808354040283529160200191610701565b820191906000526020600020905b8154815290600101906020018083116106e457829003601f168201915b50505050509050919050565b600082815260076020526040902061072582826111bd565b506104aa8383610ae4565b6000818152600260205260409020546001600160a01b031661078f5760405162461bcd60e51b8152602060048201526018602482015277115490cdcc8c4e881a5b9d985b1a59081d1bdad95b88125160421b6044820152606401610409565b50565b600081815260046020526040902080546001600160a01b0319166001600160a01b03841690811790915581906107c7826104fb565b6001600160a01b03167f8c5be1e5ebec7d5bd14f71427d1e84f3dd0314c0f7b2291e5b200ac8c7c3b92560405160405180910390a45050565b60008061080c836104fb565b9050806001600160a01b0316846001600160a01b0316148061085357506001600160a01b0380821660009081526005602090815260408083209388168352929052205460ff165b806108775750836001600160a01b031661086c8461036e565b6001600160a01b0316145b949350505050565b826001600160a01b0316610892826104fb565b6001600160a01b0316146108b85760405162461bcd60e51b81526004016104099061127d565b6001600160a01b03821661091a5760405162461bcd60e51b8152602060048201526024808201527f4552433732313a207472616e7366657220746f20746865207a65726f206164646044820152637265737360e01b6064820152608401610409565b826001600160a01b031661092d826104fb565b6001600160a01b0316146109535760405162461bcd60e51b81526004016104099061127d565b600081815260046020908152604080832080546001600160a01b03199081169091556001600160a01b0387811680865260038552838620805460001901905590871680865283862080546001019055868652600290945282852080549092168417909155905184937fddf252ad1be2c89b69c2b068fc378daa952ba7f163c4a11628f55a4df523b3ef91a4505050565b816001600160a01b0316836001600160a01b031603610a445760405162461bcd60e51b815260206004820152601960248201527f4552433732313a20617070726f766520746f2063616c6c6572000000000000006044820152606401610409565b6001600160a01b03838116600081815260056020908152604080832094871680845294825291829020805460ff191686151590811790915591519182527f17307eab39ab6107e8899845ad3d59bd9653f200f220920489ca2b5937696c31910160405180910390a3505050565b610abc84848461087f565b610ac884848484610afe565b6106315760405162461bcd60e51b8152600401610409906112c2565b6105fb828260405180602001604052806000815250610bff565b60006001600160a01b0384163b15610bf457604051630a85bd0160e11b81526001600160a01b0385169063150b7a0290610b42903390899088908890600401611314565b6020604051808303816000875af1925050508015610b7d575060408051601f3d908101601f19168201909252610b7a91810190611351565b60015b610bda573d808015610bab576040519150601f19603f3d011682016040523d82523d6000602084013e610bb0565b606091505b508051600003610bd25760405162461bcd60e51b8152600401610409906112c2565b805181602001fd5b6001600160e01b031916630a85bd0160e11b149050610877565b506001949350505050565b610c098383610c32565b610c166000848484610afe565b6104aa5760405162461bcd60e51b8152600401610409906112c2565b6001600160a01b038216610c885760405162461bcd60e51b815260206004820181905260248201527f4552433732313a206d696e7420746f20746865207a65726f20616464726573736044820152606401610409565b6000818152600260205260409020546001600160a01b031615610ced5760405162461bcd60e51b815260206004820152601c60248201527f4552433732313a20746f6b656e20616c7265616479206d696e746564000000006044820152606401610409565b6000818152600260205260409020546001600160a01b031615610d525760405162461bcd60e51b815260206004820152601c60248201527f4552433732313a20746f6b656e20616c7265616479206d696e746564000000006044820152606401610409565b6001600160a01b038216600081815260036020908152604080832080546001019055848352600290915280822080546001600160a01b0319168417905551839291907fddf252ad1be2c89b69c2b068fc378daa952ba7f163c4a11628f55a4df523b3ef908290a45050565b6001600160e01b03198116811461078f57600080fd5b600060208284031215610de557600080fd5b8135610df081610dbd565b9392505050565b6000815180845260005b81811015610e1d57602081850181015186830182015201610e01565b506000602082860101526020601f19601f83011685010191505092915050565b602081526000610df06020830184610df7565b600060208284031215610e6257600080fd5b5035919050565b80356001600160a01b0381168114610e8057600080fd5b919050565b60008060408385031215610e9857600080fd5b610ea183610e69565b946020939093013593505050565b600080600060608486031215610ec457600080fd5b610ecd84610e69565b9250610edb60208501610e69565b9150604084013590509250925092565b600060208284031215610efd57600080fd5b610df082610e69565b60008060408385031215610f1957600080fd5b610f2283610e69565b915060208301358015158114610f3757600080fd5b809150509250929050565b634e487b7160e01b600052604160045260246000fd5b600067ffffffffffffffff80841115610f7357610f73610f42565b604051601f8501601f19908116603f01168101908282118183101715610f9b57610f9b610f42565b81604052809350858152868686011115610fb457600080fd5b858560208301376000602087830101525050509392505050565b60008060008060808587031215610fe457600080fd5b610fed85610e69565b9350610ffb60208601610e69565b925060408501359150606085013567ffffffffffffffff81111561101e57600080fd5b8501601f8101871361102f57600080fd5b61103e87823560208401610f58565b91505092959194509250565b60008060006060848603121561105f57600080fd5b61106884610e69565b925060208401359150604084013567ffffffffffffffff81111561108b57600080fd5b8401601f8101861361109c57600080fd5b6110ab86823560208401610f58565b9150509250925092565b600080604083850312156110c857600080fd5b6110d183610e69565b91506110df60208401610e69565b90509250929050565b600181811c908216806110fc57607f821691505b60208210810361111c57634e487b7160e01b600052602260045260246000fd5b50919050565b6020808252602d908201527f4552433732313a2063616c6c6572206973206e6f7420746f6b656e206f776e6560408201526c1c881bdc88185c1c1c9bdd9959609a1b606082015260800190565b601f8211156104aa57600081815260208120601f850160051c810160208610156111965750805b601f850160051c820191505b818110156111b5578281556001016111a2565b505050505050565b815167ffffffffffffffff8111156111d7576111d7610f42565b6111eb816111e584546110e8565b8461116f565b602080601f83116001811461122057600084156112085750858301515b600019600386901b1c1916600185901b1785556111b5565b600085815260208120601f198616915b8281101561124f57888601518255948401946001909101908401611230565b508582101561126d5787850151600019600388901b60f8161c191681555b5050505050600190811b01905550565b60208082526025908201527f4552433732313a207472616e736665722066726f6d20696e636f72726563742060408201526437bbb732b960d91b606082015260800190565b60208082526032908201527f4552433732313a207472616e7366657220746f206e6f6e20455243373231526560408201527131b2b4bb32b91034b6b83632b6b2b73a32b960711b606082015260800190565b6001600160a01b038581168252841660208201526040810183905260806060820181905260009061134790830184610df7565b9695505050505050565b60006020828403121561136357600080fd5b8151610df081610dbd56fea2646970667358221220bbde3077d5ca42b4fcb7fb75be4894f69b7a3ed3d9b117e52cb95a083070331864736f6c63430008130033a26469706673582212200710bfbc87389ac459477943cf720cb9d885ec511341963a6fc2638b32ff60cb64736f6c63430008130033",
    "linkReferences": {}
  },
  "methodIdentifiers": {
    "addContentCreator(string,uint256)": "b2a92810",
    "fulfillRequestAndMint(uint256,string)": "065a4353",
    "getContentCreatorInfo(uint256)": "95eea453",
    "getRequestDetails(uint256)": "f34d4c63",
    "getRequestsForCreator(uint256)": "b7efa215",
    "purchaseNFT(uint256,string)": "2f6e02b6",
    "refund(uint256)": "278ecde1"
  },
  "id": 33
}