{
  "abi": [
    {
      "inputs": [
        {
          "internalType": "uint256",
          "name": "requestId",
          "type": "uint256"
        }
      ],
      "name": "NFTPurchaseManager__AlreadyMintedNft",
      "type": "error"
    },
    {
      "inputs": [],
      "name": "NFTPurchaseManager__NotAllowedToPerformThisAction",
      "type": "error"
    },
    {
      "inputs": [
        {
          "internalType": "uint256",
          "name": "amountSent",
          "type": "uint256"
        },
        {
          "internalType": "uint256",
          "name": "correctAmount",
          "type": "uint256"
        }
      ],
      "name": "NFTPurchaseManager__UncorrectAmountSent",
      "type": "error"
    },
    {
      "anonymous": false,
      "inputs": [
        {
          "indexed": false,
          "internalType": "uint256",
          "name": "creatorId",
          "type": "uint256"
        },
        {
          "indexed": false,
          "internalType": "address",
          "name": "creatorAddress",
          "type": "address"
        },
        {
          "indexed": false,
          "internalType": "uint256",
          "name": "creatorPrice",
          "type": "uint256"
        }
      ],
      "name": "NewCreator",
      "type": "event"
    },
    {
      "anonymous": false,
      "inputs": [
        {
          "indexed": false,
          "internalType": "uint256",
          "name": "requestId",
          "type": "uint256"
        },
        {
          "indexed": false,
          "internalType": "address",
          "name": "fanAddress",
          "type": "address"
        },
        {
          "indexed": false,
          "internalType": "uint256",
          "name": "creatorId",
          "type": "uint256"
        },
        {
          "indexed": false,
          "internalType": "string",
          "name": "message",
          "type": "string"
        },
        {
          "indexed": false,
          "internalType": "uint256",
          "name": "amountPaid",
          "type": "uint256"
        }
      ],
      "name": "PurchaseRequestCreated",
      "type": "event"
    },
    {
      "anonymous": false,
      "inputs": [
        {
          "indexed": false,
          "internalType": "address",
          "name": "fanAddress",
          "type": "address"
        }
      ],
      "name": "RefundedFan",
      "type": "event"
    },
    {
      "anonymous": false,
      "inputs": [
        {
          "indexed": false,
          "internalType": "uint256",
          "name": "requestId",
          "type": "uint256"
        },
        {
          "indexed": false,
          "internalType": "string",
          "name": "URI",
          "type": "string"
        },
        {
          "indexed": false,
          "internalType": "address",
          "name": "fan",
          "type": "address"
        }
      ],
      "name": "RequestFulfilled",
      "type": "event"
    },
    {
      "inputs": [
        {
          "internalType": "string",
          "name": "_name",
          "type": "string"
        },
        {
          "internalType": "uint256",
          "name": "_priceInETH",
          "type": "uint256"
        }
      ],
      "name": "addContentCreator",
      "outputs": [
        {
          "internalType": "uint256",
          "name": "",
          "type": "uint256"
        }
      ],
      "stateMutability": "nonpayable",
      "type": "function"
    },
    {
      "inputs": [
        {
          "internalType": "uint256",
          "name": "_requestId",
          "type": "uint256"
        },
        {
          "internalType": "string",
          "name": "_URI",
          "type": "string"
        }
      ],
      "name": "fulfillRequestAndMint",
      "outputs": [],
      "stateMutability": "nonpayable",
      "type": "function"
    },
    {
      "inputs": [
        {
          "internalType": "uint256",
          "name": "_creatorId",
          "type": "uint256"
        }
      ],
      "name": "getContentCreatorInfo",
      "outputs": [
        {
          "internalType": "string",
          "name": "",
          "type": "string"
        },
        {
          "internalType": "address",
          "name": "",
          "type": "address"
        },
        {
          "internalType": "uint256",
          "name": "",
          "type": "uint256"
        }
      ],
      "stateMutability": "view",
      "type": "function"
    },
    {
      "inputs": [
        {
          "internalType": "uint256",
          "name": "_requestId",
          "type": "uint256"
        }
      ],
      "name": "getRequestDetails",
      "outputs": [
        {
          "internalType": "address",
          "name": "",
          "type": "address"
        },
        {
          "internalType": "uint256",
          "name": "",
          "type": "uint256"
        },
        {
          "internalType": "string",
          "name": "",
          "type": "string"
        },
        {
          "internalType": "uint256",
          "name": "",
          "type": "uint256"
        },
        {
          "internalType": "bool",
          "name": "",
          "type": "bool"
        }
      ],
      "stateMutability": "view",
      "type": "function"
    },
    {
      "inputs": [
        {
          "internalType": "uint256",
          "name": "_creatorId",
          "type": "uint256"
        }
      ],
      "name": "getRequestsForCreator",
      "outputs": [
        {
          "internalType": "uint256[]",
          "name": "",
          "type": "uint256[]"
        }
      ],
      "stateMutability": "view",
      "type": "function"
    },
    {
      "inputs": [
        {
          "internalType": "uint256",
          "name": "_creatorId",
          "type": "uint256"
        },
        {
          "internalType": "string",
          "name": "_message",
          "type": "string"
        }
      ],
      "name": "purchaseNFT",
      "outputs": [
        {
          "internalType": "uint256",
          "name": "",
          "type": "uint256"
        }
      ],
      "stateMutability": "payable",
      "type": "function"
    },
    {
      "inputs": [
        {
          "internalType": "uint256",
          "name": "requestId",
          "type": "uint256"
        }
      ],
      "name": "refund",
      "outputs": [],
      "stateMutability": "nonpayable",
      "type": "function"
    }
  ],
  "bytecode": {
    "object": "0x60806040526000805534801561001457600080fd5b506123d1806100246000396000f3fe608060405260043610620000795760003560e01c806395eea453116200005457806395eea45314620000f4578063b2a92810146200012a578063b7efa215146200014f578063f34d4c63146200018357600080fd5b8063065a4353146200007e578063278ecde114620000a55780632f6e02b614620000ca575b600080fd5b3480156200008b57600080fd5b50620000a36200009d36600462000a36565b620001bb565b005b348015620000b257600080fd5b50620000a3620000c436600462000a81565b620003d4565b620000e1620000db36600462000a36565b62000509565b6040519081526020015b60405180910390f35b3480156200010157600080fd5b50620001196200011336600462000a81565b6200067d565b604051620000eb9392919062000ae3565b3480156200013757600080fd5b50620000e16200014936600462000b13565b6200074b565b3480156200015c57600080fd5b50620001746200016e36600462000a81565b6200082e565b604051620000eb919062000b5c565b3480156200019057600080fd5b50620001a8620001a236600462000a81565b62000892565b604051620000eb95949392919062000ba2565b600082815260026020908152604080832060019081015484526003909252909120015482906001600160a01b03163314620002095760405163029668d360e11b815260040160405180910390fd5b600083815260026020526040902060040154839060ff16156200024757604051632b08f44160e01b8152600481018290526024015b60405180910390fd5b60008481526002602081815260408084206001810154855260038352818520840154898652939092529054905191926001600160a01b03909116916200028d906200097d565b604051809103906000f080158015620002aa573d6000803e3d6000fd5b506040516334ff261960e21b81529091506001600160a01b0382169063d3fc986490620002e09085908b908b9060040162000be4565b600060405180830381600087803b158015620002fb57600080fd5b505af115801562000310573d6000803e3d6000fd5b505060405160009250829150339086908381818185875af1925050503d80600081146200035a576040519150601f19603f3d011682016040523d82523d6000602084013e6200035f565b606091505b5091509150816200036f57600080fd5b60008981526002602052604090819020600401805460ff19166001179055517fa67a872e9deaae61261d948e7ed862d69f31ae38be00020be7c088d67724723b90620003c1908b908b90889062000c16565b60405180910390a1505050505050505050565b600081815260026020526040902060040154819060ff16156200040e57604051632b08f44160e01b8152600481018290526024016200023e565b60008281526002602052604090205482906001600160a01b03163314620004485760405163029668d360e11b815260040160405180910390fd5b600083815260026020818152604080842080546001909101548552600390925280842090920154915183926001600160a01b0390921691908381818185875af1925050503d8060008114620004ba576040519150601f19603f3d011682016040523d82523d6000602084013e620004bf565b606091505b509150915081620004cf57600080fd5b6040513381527f9ef0f8dc918c885543b0e2eec61eb96f087677207a1aaf28e29f18635980570c9060200160405180910390a15050505050565b60008281526003602052604081206002015434811462000546576040516364a5396760e01b8152346004820152602481018290526044016200023e565b6040805160a0810182523381526020808201878152828401878152346060850152600060808501819052600180548252600294859052959020845181546001600160a01b0319166001600160a01b03909116178155915194820194909455925191929190820190620005b9908262000cd8565b50606082015160038201556080909101516004918201805460ff1916911515919091179055600180546000818152600260209081526040808320850154835294815284822080548086018255908352912001555490517f8a3ff9b2d6ff0522c8bfaa40655328fae7a97829f0c752ff5c134a3fdd599d84916200064491339088908890349062000da5565b60405180910390a1600180549060006200065e8362000dfc565b91905055506001805462000673919062000e18565b9150505b92915050565b600081815260036020526040812060018101546002820154825460609493849390926001600160a01b03909116918390620006b89062000c49565b80601f0160208091040260200160405190810160405280929190818152602001828054620006e69062000c49565b8015620007375780601f106200070b5761010080835404028352916020019162000737565b820191906000526020600020905b8154815290600101906020018083116200071957829003601f168201915b505050505092509250925092509193909250565b604080516060810182528381523360208083019190915281830184905260008054815260039091529182208151819062000786908262000cd8565b506020828101516001830180546001600160a01b0319166001600160a01b03909216919091179055604092830151600290920191909155600054825190815233918101919091529081018390527fb5c8456f65ce890747d669970ee6f257f63a096562fc55795876c4496f45ee889060600160405180910390a1600080549080620008118362000dfc565b9190505550600160005462000827919062000e18565b9392505050565b6000818152600460209081526040918290208054835181840281018401909452808452606093928301828280156200088657602002820191906000526020600020905b81548152602001906001019080831162000871575b50505050509050919050565b6000818152600260208190526040822080546001820154600383015460048401549390940180548695606095879586956001600160a01b0390911694909390929160ff16908390620008e49062000c49565b80601f0160208091040260200160405190810160405280929190818152602001828054620009129062000c49565b8015620009635780601f10620009375761010080835404028352916020019162000963565b820191906000526020600020905b8154815290600101906020018083116200094557829003601f168201915b505050505092509450945094509450945091939590929450565b61156d8062000e2f83390190565b634e487b7160e01b600052604160045260246000fd5b600082601f830112620009b357600080fd5b813567ffffffffffffffff80821115620009d157620009d16200098b565b604051601f8301601f19908116603f01168101908282118183101715620009fc57620009fc6200098b565b8160405283815286602085880101111562000a1657600080fd5b836020870160208301376000602085830101528094505050505092915050565b6000806040838503121562000a4a57600080fd5b82359150602083013567ffffffffffffffff81111562000a6957600080fd5b62000a7785828601620009a1565b9150509250929050565b60006020828403121562000a9457600080fd5b5035919050565b6000815180845260005b8181101562000ac35760208185018101518683018201520162000aa5565b506000602082860101526020601f19601f83011685010191505092915050565b60608152600062000af8606083018662000a9b565b6001600160a01b039490941660208301525060400152919050565b6000806040838503121562000b2757600080fd5b823567ffffffffffffffff81111562000b3f57600080fd5b62000b4d85828601620009a1565b95602094909401359450505050565b6020808252825182820181905260009190848201906040850190845b8181101562000b965783518352928401929184019160010162000b78565b50909695505050505050565b60018060a01b038616815284602082015260a06040820152600062000bcb60a083018662000a9b565b6060830194909452509015156080909101529392505050565b60018060a01b038416815282602082015260606040820152600062000c0d606083018462000a9b565b95945050505050565b83815260606020820152600062000c31606083018562000a9b565b905060018060a01b0383166040830152949350505050565b600181811c9082168062000c5e57607f821691505b60208210810362000c7f57634e487b7160e01b600052602260045260246000fd5b50919050565b601f82111562000cd357600081815260208120601f850160051c8101602086101562000cae5750805b601f850160051c820191505b8181101562000ccf5782815560010162000cba565b5050505b505050565b815167ffffffffffffffff81111562000cf55762000cf56200098b565b62000d0d8162000d06845462000c49565b8462000c85565b602080601f83116001811462000d45576000841562000d2c5750858301515b600019600386901b1c1916600185901b17855562000ccf565b600085815260208120601f198616915b8281101562000d765788860151825594840194600190910190840162000d55565b508582101562000d955787850151600019600388901b60f8161c191681555b5050505050600190811b01905550565b85815260018060a01b038516602082015283604082015260a06060820152600062000dd460a083018562000a9b565b90508260808301529695505050505050565b634e487b7160e01b600052601160045260246000fd5b60006001820162000e115762000e1162000de6565b5060010190565b8181038181111562000677576200067762000de656fe60806040523480156200001157600080fd5b506040518060400160405280600b81526020016a14dd185c98dbdb9b9958dd60aa1b8152506040518060400160405280600481526020016329aa219b60e11b815250816000908162000064919062000121565b50600162000073828262000121565b505050620001ed565b634e487b7160e01b600052604160045260246000fd5b600181811c90821680620000a757607f821691505b602082108103620000c857634e487b7160e01b600052602260045260246000fd5b50919050565b601f8211156200011c57600081815260208120601f850160051c81016020861015620000f75750805b601f850160051c820191505b81811015620001185782815560010162000103565b5050505b505050565b81516001600160401b038111156200013d576200013d6200007c565b62000155816200014e845462000092565b84620000ce565b602080601f8311600181146200018d5760008415620001745750858301515b600019600386901b1c1916600185901b17855562000118565b600085815260208120601f198616915b82811015620001be578886015182559484019460019091019084016200019d565b5085821015620001dd5787850151600019600388901b60f8161c191681555b5050505050600190811b01905550565b61137080620001fd6000396000f3fe608060405234801561001057600080fd5b50600436106100ea5760003560e01c806370a082311161008c578063b88d4fde11610066578063b88d4fde146101e1578063c87b56dd146101f4578063d3fc986414610207578063e985e9c51461021a57600080fd5b806370a08231146101a557806395d89b41146101c6578063a22cb465146101ce57600080fd5b8063095ea7b3116100c8578063095ea7b31461015757806323b872dd1461016c57806342842e0e1461017f5780636352211e1461019257600080fd5b806301ffc9a7146100ef57806306fdde0314610117578063081812fc1461012c575b600080fd5b6101026100fd366004610d9f565b610256565b60405190151581526020015b60405180910390f35b61011f6102a8565b60405161010e9190610e09565b61013f61013a366004610e1c565b61033a565b6040516001600160a01b03909116815260200161010e565b61016a610165366004610e51565b610361565b005b61016a61017a366004610e7b565b61047b565b61016a61018d366004610e7b565b6104ac565b61013f6101a0366004610e1c565b6104c7565b6101b86101b3366004610eb7565b610527565b60405190815260200161010e565b61011f6105ad565b61016a6101dc366004610ed2565b6105bc565b61016a6101ef366004610f9a565b6105cb565b61011f610202366004610e1c565b610603565b61016a610215366004611016565b6106d9565b610102610228366004611081565b6001600160a01b03918216600090815260056020908152604080832093909416825291909152205460ff1690565b60006001600160e01b031982166380ac58cd60e01b148061028757506001600160e01b03198216635b5e139f60e01b145b806102a257506301ffc9a760e01b6001600160e01b03198316145b92915050565b6060600080546102b7906110b4565b80601f01602080910402602001604051908101604052809291908181526020018280546102e3906110b4565b80156103305780601f1061030557610100808354040283529160200191610330565b820191906000526020600020905b81548152906001019060200180831161031357829003601f168201915b5050505050905090565b6000610345826106fc565b506000908152600460205260409020546001600160a01b031690565b600061036c826104c7565b9050806001600160a01b0316836001600160a01b0316036103de5760405162461bcd60e51b815260206004820152602160248201527f4552433732313a20617070726f76616c20746f2063757272656e74206f776e656044820152603960f91b60648201526084015b60405180910390fd5b336001600160a01b03821614806103fa57506103fa8133610228565b61046c5760405162461bcd60e51b815260206004820152603d60248201527f4552433732313a20617070726f76652063616c6c6572206973206e6f7420746f60448201527f6b656e206f776e6572206f7220617070726f76656420666f7220616c6c00000060648201526084016103d5565b610476838361075e565b505050565b61048533826107cc565b6104a15760405162461bcd60e51b81526004016103d5906110ee565b61047683838361084b565b610476838383604051806020016040528060008152506105cb565b6000818152600260205260408120546001600160a01b0316806102a25760405162461bcd60e51b8152602060048201526018602482015277115490cdcc8c4e881a5b9d985b1a59081d1bdad95b88125160421b60448201526064016103d5565b60006001600160a01b0382166105915760405162461bcd60e51b815260206004820152602960248201527f4552433732313a2061646472657373207a65726f206973206e6f7420612076616044820152683634b21037bbb732b960b91b60648201526084016103d5565b506001600160a01b031660009081526003602052604090205490565b6060600180546102b7906110b4565b6105c73383836109af565b5050565b6105d533836107cc565b6105f15760405162461bcd60e51b81526004016103d5906110ee565b6105fd84848484610a7d565b50505050565b6000818152600260205260409020546060906001600160a01b031661063b57604051637598996f60e01b815260040160405180910390fd5b60008281526006602052604090208054610654906110b4565b80601f0160208091040260200160405190810160405280929190818152602001828054610680906110b4565b80156106cd5780601f106106a2576101008083540402835291602001916106cd565b820191906000526020600020905b8154815290600101906020018083116106b057829003601f168201915b50505050509050919050565b60008281526006602052604090206106f18282611189565b506104768383610ab0565b6000818152600260205260409020546001600160a01b031661075b5760405162461bcd60e51b8152602060048201526018602482015277115490cdcc8c4e881a5b9d985b1a59081d1bdad95b88125160421b60448201526064016103d5565b50565b600081815260046020526040902080546001600160a01b0319166001600160a01b0384169081179091558190610793826104c7565b6001600160a01b03167f8c5be1e5ebec7d5bd14f71427d1e84f3dd0314c0f7b2291e5b200ac8c7c3b92560405160405180910390a45050565b6000806107d8836104c7565b9050806001600160a01b0316846001600160a01b0316148061081f57506001600160a01b0380821660009081526005602090815260408083209388168352929052205460ff165b806108435750836001600160a01b03166108388461033a565b6001600160a01b0316145b949350505050565b826001600160a01b031661085e826104c7565b6001600160a01b0316146108845760405162461bcd60e51b81526004016103d590611249565b6001600160a01b0382166108e65760405162461bcd60e51b8152602060048201526024808201527f4552433732313a207472616e7366657220746f20746865207a65726f206164646044820152637265737360e01b60648201526084016103d5565b826001600160a01b03166108f9826104c7565b6001600160a01b03161461091f5760405162461bcd60e51b81526004016103d590611249565b600081815260046020908152604080832080546001600160a01b03199081169091556001600160a01b0387811680865260038552838620805460001901905590871680865283862080546001019055868652600290945282852080549092168417909155905184937fddf252ad1be2c89b69c2b068fc378daa952ba7f163c4a11628f55a4df523b3ef91a4505050565b816001600160a01b0316836001600160a01b031603610a105760405162461bcd60e51b815260206004820152601960248201527f4552433732313a20617070726f766520746f2063616c6c65720000000000000060448201526064016103d5565b6001600160a01b03838116600081815260056020908152604080832094871680845294825291829020805460ff191686151590811790915591519182527f17307eab39ab6107e8899845ad3d59bd9653f200f220920489ca2b5937696c31910160405180910390a3505050565b610a8884848461084b565b610a9484848484610aca565b6105fd5760405162461bcd60e51b81526004016103d59061128e565b6105c7828260405180602001604052806000815250610bcb565b60006001600160a01b0384163b15610bc057604051630a85bd0160e11b81526001600160a01b0385169063150b7a0290610b0e9033908990889088906004016112e0565b6020604051808303816000875af1925050508015610b49575060408051601f3d908101601f19168201909252610b469181019061131d565b60015b610ba6573d808015610b77576040519150601f19603f3d011682016040523d82523d6000602084013e610b7c565b606091505b508051600003610b9e5760405162461bcd60e51b81526004016103d59061128e565b805181602001fd5b6001600160e01b031916630a85bd0160e11b149050610843565b506001949350505050565b610bd58383610bfe565b610be26000848484610aca565b6104765760405162461bcd60e51b81526004016103d59061128e565b6001600160a01b038216610c545760405162461bcd60e51b815260206004820181905260248201527f4552433732313a206d696e7420746f20746865207a65726f206164647265737360448201526064016103d5565b6000818152600260205260409020546001600160a01b031615610cb95760405162461bcd60e51b815260206004820152601c60248201527f4552433732313a20746f6b656e20616c7265616479206d696e7465640000000060448201526064016103d5565b6000818152600260205260409020546001600160a01b031615610d1e5760405162461bcd60e51b815260206004820152601c60248201527f4552433732313a20746f6b656e20616c7265616479206d696e7465640000000060448201526064016103d5565b6001600160a01b038216600081815260036020908152604080832080546001019055848352600290915280822080546001600160a01b0319168417905551839291907fddf252ad1be2c89b69c2b068fc378daa952ba7f163c4a11628f55a4df523b3ef908290a45050565b6001600160e01b03198116811461075b57600080fd5b600060208284031215610db157600080fd5b8135610dbc81610d89565b9392505050565b6000815180845260005b81811015610de957602081850181015186830182015201610dcd565b506000602082860101526020601f19601f83011685010191505092915050565b602081526000610dbc6020830184610dc3565b600060208284031215610e2e57600080fd5b5035919050565b80356001600160a01b0381168114610e4c57600080fd5b919050565b60008060408385031215610e6457600080fd5b610e6d83610e35565b946020939093013593505050565b600080600060608486031215610e9057600080fd5b610e9984610e35565b9250610ea760208501610e35565b9150604084013590509250925092565b600060208284031215610ec957600080fd5b610dbc82610e35565b60008060408385031215610ee557600080fd5b610eee83610e35565b915060208301358015158114610f0357600080fd5b809150509250929050565b634e487b7160e01b600052604160045260246000fd5b600067ffffffffffffffff80841115610f3f57610f3f610f0e565b604051601f8501601f19908116603f01168101908282118183101715610f6757610f67610f0e565b81604052809350858152868686011115610f8057600080fd5b858560208301376000602087830101525050509392505050565b60008060008060808587031215610fb057600080fd5b610fb985610e35565b9350610fc760208601610e35565b925060408501359150606085013567ffffffffffffffff811115610fea57600080fd5b8501601f81018713610ffb57600080fd5b61100a87823560208401610f24565b91505092959194509250565b60008060006060848603121561102b57600080fd5b61103484610e35565b925060208401359150604084013567ffffffffffffffff81111561105757600080fd5b8401601f8101861361106857600080fd5b61107786823560208401610f24565b9150509250925092565b6000806040838503121561109457600080fd5b61109d83610e35565b91506110ab60208401610e35565b90509250929050565b600181811c908216806110c857607f821691505b6020821081036110e857634e487b7160e01b600052602260045260246000fd5b50919050565b6020808252602d908201527f4552433732313a2063616c6c6572206973206e6f7420746f6b656e206f776e6560408201526c1c881bdc88185c1c1c9bdd9959609a1b606082015260800190565b601f82111561047657600081815260208120601f850160051c810160208610156111625750805b601f850160051c820191505b818110156111815782815560010161116e565b505050505050565b815167ffffffffffffffff8111156111a3576111a3610f0e565b6111b7816111b184546110b4565b8461113b565b602080601f8311600181146111ec57600084156111d45750858301515b600019600386901b1c1916600185901b178555611181565b600085815260208120601f198616915b8281101561121b578886015182559484019460019091019084016111fc565b50858210156112395787850151600019600388901b60f8161c191681555b5050505050600190811b01905550565b60208082526025908201527f4552433732313a207472616e736665722066726f6d20696e636f72726563742060408201526437bbb732b960d91b606082015260800190565b60208082526032908201527f4552433732313a207472616e7366657220746f206e6f6e20455243373231526560408201527131b2b4bb32b91034b6b83632b6b2b73a32b960711b606082015260800190565b6001600160a01b038581168252841660208201526040810183905260806060820181905260009061131390830184610dc3565b9695505050505050565b60006020828403121561132f57600080fd5b8151610dbc81610d8956fea2646970667358221220876042ffea47047d4966476eb97cfa1fcdfcef172b694e36253c8c825b429ec664736f6c63430008130033a26469706673582212205a394c935a4a2d151bcb0181052c9c63bf8e534e5b4378ed3dde142817ab4e3564736f6c63430008130033",
    "linkReferences": {}
  },
  "methodIdentifiers": {
    "addContentCreator(string,uint256)": "b2a92810",
    "fulfillRequestAndMint(uint256,string)": "065a4353",
    "getContentCreatorInfo(uint256)": "95eea453",
    "getRequestDetails(uint256)": "f34d4c63",
    "getRequestsForCreator(uint256)": "b7efa215",
    "purchaseNFT(uint256,string)": "2f6e02b6",
    "refund(uint256)": "278ecde1"
  },
  "id": 32
}